{"abi":[{"type":"constructor","inputs":[{"name":"_updater","type":"address","internalType":"address"}],"stateMutability":"nonpayable"},{"type":"function","name":"lastUpdatedAt","inputs":[],"outputs":[{"name":"","type":"uint256","internalType":"uint256"}],"stateMutability":"view"},{"type":"function","name":"latestVerifiedReserves","inputs":[],"outputs":[{"name":"","type":"uint256","internalType":"uint256"}],"stateMutability":"view"},{"type":"function","name":"updateReserves","inputs":[{"name":"_newReserve","type":"uint256","internalType":"uint256"}],"outputs":[],"stateMutability":"nonpayable"},{"type":"function","name":"updater","inputs":[],"outputs":[{"name":"","type":"address","internalType":"address"}],"stateMutability":"view"},{"type":"event","name":"ReservesUpdated","inputs":[{"name":"newReserve","type":"uint256","indexed":false,"internalType":"uint256"},{"name":"timestamp","type":"uint256","indexed":false,"internalType":"uint256"}],"anonymous":false}],"bytecode":{"object":"0x608060405234801561000f575f5ffd5b50604051610496380380610496833981810160405281019061003191906100d5565b8060025f6101000a81548173ffffffffffffffffffffffffffffffffffffffff021916908373ffffffffffffffffffffffffffffffffffffffff16021790555050610100565b5f5ffd5b5f73ffffffffffffffffffffffffffffffffffffffff82169050919050565b5f6100a48261007b565b9050919050565b6100b48161009a565b81146100be575f5ffd5b50565b5f815190506100cf816100ab565b92915050565b5f602082840312156100ea576100e9610077565b5b5f6100f7848285016100c1565b91505092915050565b6103898061010d5f395ff3fe608060405234801561000f575f5ffd5b506004361061004a575f3560e01c8063314923921461004e57806354aea1271461006a578063df034cd014610088578063f2d014b7146100a6575b5f5ffd5b61006860048036038101906100639190610209565b6100c4565b005b61007261019c565b60405161007f9190610243565b60405180910390f35b6100906101a5565b60405161009d919061029b565b60405180910390f35b6100ae6101ca565b6040516100bb9190610243565b60405180910390f35b60025f9054906101000a900473ffffffffffffffffffffffffffffffffffffffff1673ffffffffffffffffffffffffffffffffffffffff163373ffffffffffffffffffffffffffffffffffffffff1614610153576040517f08c379a000000000000000000000000000000000000000000000000000000000815260040161014a9061030e565b60405180910390fd5b805f81905550426001819055507f5141ecc84a35c12ca2bf76bb33d393bd2fc22f906da0743534beef4ae63c6c8e814260405161019192919061032c565b60405180910390a150565b5f600154905090565b60025f9054906101000a900473ffffffffffffffffffffffffffffffffffffffff1681565b5f5f54905090565b5f5ffd5b5f819050919050565b6101e8816101d6565b81146101f2575f5ffd5b50565b5f81359050610203816101df565b92915050565b5f6020828403121561021e5761021d6101d2565b5b5f61022b848285016101f5565b91505092915050565b61023d816101d6565b82525050565b5f6020820190506102565f830184610234565b92915050565b5f73ffffffffffffffffffffffffffffffffffffffff82169050919050565b5f6102858261025c565b9050919050565b6102958161027b565b82525050565b5f6020820190506102ae5f83018461028c565b92915050565b5f82825260208201905092915050565b7f4e6f7420617574686f72697a65640000000000000000000000000000000000005f82015250565b5f6102f8600e836102b4565b9150610303826102c4565b602082019050919050565b5f6020820190508181035f830152610325816102ec565b9050919050565b5f60408201905061033f5f830185610234565b61034c6020830184610234565b939250505056fea26469706673582212209cdc0a96163d6ef5a1c1dbcfd5f521a97cc359ac24c0f92120aaed78a218149464736f6c634300081e0033","linkReferences":{}},"methodIdentifiers":{"lastUpdatedAt()":"54aea127","latestVerifiedReserves()":"f2d014b7","updateReserves(uint256)":"31492392","updater()":"df034cd0"},"id":28}