{"abi":[{"type":"constructor","inputs":[{"name":"_proofFeed","type":"address","internalType":"address"},{"name":"tokenName","type":"string","internalType":"string"},{"name":"tokenSymbol","type":"string","internalType":"string"}],"stateMutability":"nonpayable"},{"type":"function","name":"CLOCK_MODE","inputs":[],"outputs":[{"name":"","type":"string","internalType":"string"}],"stateMutability":"view"},{"type":"function","name":"allowance","inputs":[{"name":"owner","type":"address","internalType":"address"},{"name":"spender","type":"address","internalType":"address"}],"outputs":[{"name":"","type":"uint256","internalType":"uint256"}],"stateMutability":"view"},{"type":"function","name":"approve","inputs":[{"name":"spender","type":"address","internalType":"address"},{"name":"value","type":"uint256","internalType":"uint256"}],"outputs":[{"name":"","type":"bool","internalType":"bool"}],"stateMutability":"nonpayable"},{"type":"function","name":"balanceOf","inputs":[{"name":"account","type":"address","internalType":"address"}],"outputs":[{"name":"","type":"uint256","internalType":"uint256"}],"stateMutability":"view"},{"type":"function","name":"balanceOfAt","inputs":[{"name":"account","type":"address","internalType":"address"},{"name":"snapshotId","type":"uint256","internalType":"uint256"}],"outputs":[{"name":"","type":"uint256","internalType":"uint256"}],"stateMutability":"view"},{"type":"function","name":"burn","inputs":[{"name":"from","type":"address","internalType":"address"},{"name":"amount","type":"uint256","internalType":"uint256"}],"outputs":[],"stateMutability":"nonpayable"},{"type":"function","name":"checkpoints","inputs":[{"name":"account","type":"address","internalType":"address"},{"name":"pos","type":"uint32","internalType":"uint32"}],"outputs":[{"name":"","type":"tuple","internalType":"struct Checkpoints.Checkpoint208","components":[{"name":"_key","type":"uint48","internalType":"uint48"},{"name":"_value","type":"uint208","internalType":"uint208"}]}],"stateMutability":"view"},{"type":"function","name":"clock","inputs":[],"outputs":[{"name":"","type":"uint48","internalType":"uint48"}],"stateMutability":"view"},{"type":"function","name":"decimals","inputs":[],"outputs":[{"name":"","type":"uint8","internalType":"uint8"}],"stateMutability":"view"},{"type":"function","name":"delegate","inputs":[{"name":"delegatee","type":"address","internalType":"address"}],"outputs":[],"stateMutability":"nonpayable"},{"type":"function","name":"delegateBySig","inputs":[{"name":"delegatee","type":"address","internalType":"address"},{"name":"nonce","type":"uint256","internalType":"uint256"},{"name":"expiry","type":"uint256","internalType":"uint256"},{"name":"v","type":"uint8","internalType":"uint8"},{"name":"r","type":"bytes32","internalType":"bytes32"},{"name":"s","type":"bytes32","internalType":"bytes32"}],"outputs":[],"stateMutability":"nonpayable"},{"type":"function","name":"delegates","inputs":[{"name":"account","type":"address","internalType":"address"}],"outputs":[{"name":"","type":"address","internalType":"address"}],"stateMutability":"pure"},{"type":"function","name":"eip712Domain","inputs":[],"outputs":[{"name":"fields","type":"bytes1","internalType":"bytes1"},{"name":"name","type":"string","internalType":"string"},{"name":"version","type":"string","internalType":"string"},{"name":"chainId","type":"uint256","internalType":"uint256"},{"name":"verifyingContract","type":"address","internalType":"address"},{"name":"salt","type":"bytes32","internalType":"bytes32"},{"name":"extensions","type":"uint256[]","internalType":"uint256[]"}],"stateMutability":"view"},{"type":"function","name":"getBalance","inputs":[{"name":"account","type":"address","internalType":"address"}],"outputs":[{"name":"","type":"uint256","internalType":"uint256"}],"stateMutability":"view"},{"type":"function","name":"getPastTotalSupply","inputs":[{"name":"timepoint","type":"uint256","internalType":"uint256"}],"outputs":[{"name":"","type":"uint256","internalType":"uint256"}],"stateMutability":"view"},{"type":"function","name":"getPastVotes","inputs":[{"name":"account","type":"address","internalType":"address"},{"name":"timepoint","type":"uint256","internalType":"uint256"}],"outputs":[{"name":"","type":"uint256","internalType":"uint256"}],"stateMutability":"view"},{"type":"function","name":"getProofOfReserveAddress","inputs":[],"outputs":[{"name":"","type":"address","internalType":"address"}],"stateMutability":"view"},{"type":"function","name":"getTokenName","inputs":[],"outputs":[{"name":"","type":"string","internalType":"string"}],"stateMutability":"view"},{"type":"function","name":"getTokenSymbol","inputs":[],"outputs":[{"name":"","type":"string","internalType":"string"}],"stateMutability":"view"},{"type":"function","name":"getVerifiedReserves","inputs":[],"outputs":[{"name":"","type":"uint256","internalType":"uint256"}],"stateMutability":"view"},{"type":"function","name":"getVotes","inputs":[{"name":"account","type":"address","internalType":"address"}],"outputs":[{"name":"","type":"uint256","internalType":"uint256"}],"stateMutability":"view"},{"type":"function","name":"isFullyBacked","inputs":[],"outputs":[{"name":"","type":"bool","internalType":"bool"}],"stateMutability":"view"},{"type":"function","name":"mint","inputs":[{"name":"to","type":"address","internalType":"address"},{"name":"amount","type":"uint256","internalType":"uint256"}],"outputs":[],"stateMutability":"nonpayable"},{"type":"function","name":"name","inputs":[],"outputs":[{"name":"","type":"string","internalType":"string"}],"stateMutability":"view"},{"type":"function","name":"nonces","inputs":[{"name":"owner","type":"address","internalType":"address"}],"outputs":[{"name":"","type":"uint256","internalType":"uint256"}],"stateMutability":"view"},{"type":"function","name":"numCheckpoints","inputs":[{"name":"account","type":"address","internalType":"address"}],"outputs":[{"name":"","type":"uint32","internalType":"uint32"}],"stateMutability":"view"},{"type":"function","name":"owner","inputs":[],"outputs":[{"name":"","type":"address","internalType":"address"}],"stateMutability":"view"},{"type":"function","name":"renounceOwnership","inputs":[],"outputs":[],"stateMutability":"nonpayable"},{"type":"function","name":"snapshot","inputs":[],"outputs":[{"name":"","type":"uint48","internalType":"uint48"}],"stateMutability":"nonpayable"},{"type":"function","name":"symbol","inputs":[],"outputs":[{"name":"","type":"string","internalType":"string"}],"stateMutability":"view"},{"type":"function","name":"totalSupply","inputs":[],"outputs":[{"name":"","type":"uint256","internalType":"uint256"}],"stateMutability":"view"},{"type":"function","name":"totalSupplyAt","inputs":[{"name":"snapshotId","type":"uint256","internalType":"uint256"}],"outputs":[{"name":"","type":"uint256","internalType":"uint256"}],"stateMutability":"view"},{"type":"function","name":"transfer","inputs":[{"name":"to","type":"address","internalType":"address"},{"name":"value","type":"uint256","internalType":"uint256"}],"outputs":[{"name":"","type":"bool","internalType":"bool"}],"stateMutability":"nonpayable"},{"type":"function","name":"transferFrom","inputs":[{"name":"from","type":"address","internalType":"address"},{"name":"to","type":"address","internalType":"address"},{"name":"value","type":"uint256","internalType":"uint256"}],"outputs":[{"name":"","type":"bool","internalType":"bool"}],"stateMutability":"nonpayable"},{"type":"function","name":"transferOwnership","inputs":[{"name":"newOwner","type":"address","internalType":"address"}],"outputs":[],"stateMutability":"nonpayable"},{"type":"event","name":"Approval","inputs":[{"name":"owner","type":"address","indexed":true,"internalType":"address"},{"name":"spender","type":"address","indexed":true,"internalType":"address"},{"name":"value","type":"uint256","indexed":false,"internalType":"uint256"}],"anonymous":false},{"type":"event","name":"DelegateChanged","inputs":[{"name":"delegator","type":"address","indexed":true,"internalType":"address"},{"name":"fromDelegate","type":"address","indexed":true,"internalType":"address"},{"name":"toDelegate","type":"address","indexed":true,"internalType":"address"}],"anonymous":false},{"type":"event","name":"DelegateVotesChanged","inputs":[{"name":"delegate","type":"address","indexed":true,"internalType":"address"},{"name":"previousVotes","type":"uint256","indexed":false,"internalType":"uint256"},{"name":"newVotes","type":"uint256","indexed":false,"internalType":"uint256"}],"anonymous":false},{"type":"event","name":"EIP712DomainChanged","inputs":[],"anonymous":false},{"type":"event","name":"ERC20SnapshotCheckpointed","inputs":[{"name":"snapshotId","type":"uint48","indexed":false,"internalType":"uint48"}],"anonymous":false},{"type":"event","name":"OwnershipTransferred","inputs":[{"name":"previousOwner","type":"address","indexed":true,"internalType":"address"},{"name":"newOwner","type":"address","indexed":true,"internalType":"address"}],"anonymous":false},{"type":"event","name":"Transfer","inputs":[{"name":"from","type":"address","indexed":true,"internalType":"address"},{"name":"to","type":"address","indexed":true,"internalType":"address"},{"name":"value","type":"uint256","indexed":false,"internalType":"uint256"}],"anonymous":false},{"type":"error","name":"CheckpointUnorderedInsertion","inputs":[]},{"type":"error","name":"ECDSAInvalidSignature","inputs":[]},{"type":"error","name":"ECDSAInvalidSignatureLength","inputs":[{"name":"length","type":"uint256","internalType":"uint256"}]},{"type":"error","name":"ECDSAInvalidSignatureS","inputs":[{"name":"s","type":"bytes32","internalType":"bytes32"}]},{"type":"error","name":"ERC20ExceededSafeSupply","inputs":[{"name":"increasedSupply","type":"uint256","internalType":"uint256"},{"name":"cap","type":"uint256","internalType":"uint256"}]},{"type":"error","name":"ERC20InsufficientAllowance","inputs":[{"name":"spender","type":"address","internalType":"address"},{"name":"allowance","type":"uint256","internalType":"uint256"},{"name":"needed","type":"uint256","internalType":"uint256"}]},{"type":"error","name":"ERC20InsufficientBalance","inputs":[{"name":"sender","type":"address","internalType":"address"},{"name":"balance","type":"uint256","internalType":"uint256"},{"name":"needed","type":"uint256","internalType":"uint256"}]},{"type":"error","name":"ERC20InvalidApprover","inputs":[{"name":"approver","type":"address","internalType":"address"}]},{"type":"error","name":"ERC20InvalidReceiver","inputs":[{"name":"receiver","type":"address","internalType":"address"}]},{"type":"error","name":"ERC20InvalidSender","inputs":[{"name":"sender","type":"address","internalType":"address"}]},{"type":"error","name":"ERC20InvalidSpender","inputs":[{"name":"spender","type":"address","internalType":"address"}]},{"type":"error","name":"ERC5805FutureLookup","inputs":[{"name":"timepoint","type":"uint256","internalType":"uint256"},{"name":"clock","type":"uint48","internalType":"uint48"}]},{"type":"error","name":"ERC6372InconsistentClock","inputs":[]},{"type":"error","name":"InvalidAccountNonce","inputs":[{"name":"account","type":"address","internalType":"address"},{"name":"currentNonce","type":"uint256","internalType":"uint256"}]},{"type":"error","name":"InvalidShortString","inputs":[]},{"type":"error","name":"OwnableInvalidOwner","inputs":[{"name":"owner","type":"address","internalType":"address"}]},{"type":"error","name":"OwnableUnauthorizedAccount","inputs":[{"name":"account","type":"address","internalType":"address"}]},{"type":"error","name":"SafeCastOverflowedUintDowncast","inputs":[{"name":"bits","type":"uint8","internalType":"uint8"},{"name":"value","type":"uint256","internalType":"uint256"}]},{"type":"error","name":"StringTooLong","inputs":[{"name":"str","type":"string","internalType":"string"}]},{"type":"error","name":"VotesExpiredSignature","inputs":[{"name":"expiry","type":"uint256","internalType":"uint256"}]}],"bytecode":{"object":"0x610160604052348015610010575f5ffd5b506040516145603803806145608339818101604052810190610032919061057f565b33826040518060400160405280600181526020017f31000000000000000000000000000000000000000000000000000000000000008152508484816003908161007b9190610817565b50806004908161008b9190610817565b5050506100a260058361020060201b90919060201c565b61012081815250506100be60068261020060201b90919060201c565b6101408181525050818051906020012060e08181525050808051906020012061010081815250504660a081815250506100fb61024d60201b60201c565b608081815250503073ffffffffffffffffffffffffffffffffffffffff1660c08173ffffffffffffffffffffffffffffffffffffffff168152505050505f73ffffffffffffffffffffffffffffffffffffffff168173ffffffffffffffffffffffffffffffffffffffff16036101a8575f6040517f1e4fbdf700000000000000000000000000000000000000000000000000000000815260040161019f91906108f5565b60405180910390fd5b6101b7816102a760201b60201c565b5082600c5f6101000a81548173ffffffffffffffffffffffffffffffffffffffff021916908373ffffffffffffffffffffffffffffffffffffffff160217905550505050610a81565b5f6020835110156102215761021a8361036a60201b60201c565b9050610247565b82610231836103cf60201b60201c565b5f01908161023f9190610817565b5060ff5f1b90505b92915050565b5f7f8b73c3c69bb8fe3d512ecc4cf759cc79239f7b179b0ffacaa9a75d522b39400f60e05161010051463060405160200161028c959493929190610935565b60405160208183030381529060405280519060200120905090565b5f600b5f9054906101000a900473ffffffffffffffffffffffffffffffffffffffff16905081600b5f6101000a81548173ffffffffffffffffffffffffffffffffffffffff021916908373ffffffffffffffffffffffffffffffffffffffff1602179055508173ffffffffffffffffffffffffffffffffffffffff168173ffffffffffffffffffffffffffffffffffffffff167f8be0079c531659141344cd1fd0a4f28419497f9722a3daafe3b4186f6b6457e060405160405180910390a35050565b5f5f829050601f815111156103b657826040517f305a27a90000000000000000000000000000000000000000000000000000000081526004016103ad91906109ce565b60405180910390fd5b8051816103c290610a1b565b5f1c175f1b915050919050565b5f819050919050565b5f604051905090565b5f5ffd5b5f5ffd5b5f73ffffffffffffffffffffffffffffffffffffffff82169050919050565b5f610412826103e9565b9050919050565b61042281610408565b811461042c575f5ffd5b50565b5f8151905061043d81610419565b92915050565b5f5ffd5b5f5ffd5b5f601f19601f8301169050919050565b7f4e487b71000000000000000000000000000000000000000000000000000000005f52604160045260245ffd5b6104918261044b565b810181811067ffffffffffffffff821117156104b0576104af61045b565b5b80604052505050565b5f6104c26103d8565b90506104ce8282610488565b919050565b5f67ffffffffffffffff8211156104ed576104ec61045b565b5b6104f68261044b565b9050602081019050919050565b8281835e5f83830152505050565b5f61052361051e846104d3565b6104b9565b90508281526020810184848401111561053f5761053e610447565b5b61054a848285610503565b509392505050565b5f82601f83011261056657610565610443565b5b8151610576848260208601610511565b91505092915050565b5f5f5f60608486031215610596576105956103e1565b5b5f6105a38682870161042f565b935050602084015167ffffffffffffffff8111156105c4576105c36103e5565b5b6105d086828701610552565b925050604084015167ffffffffffffffff8111156105f1576105f06103e5565b5b6105fd86828701610552565b9150509250925092565b5f81519050919050565b7f4e487b71000000000000000000000000000000000000000000000000000000005f52602260045260245ffd5b5f600282049050600182168061065557607f821691505b60208210810361066857610667610611565b5b50919050565b5f819050815f5260205f209050919050565b5f6020601f8301049050919050565b5f82821b905092915050565b5f600883026106ca7fffffffffffffffffffffffffffffffffffffffffffffffffffffffffffffffff8261068f565b6106d4868361068f565b95508019841693508086168417925050509392505050565b5f819050919050565b5f819050919050565b5f61071861071361070e846106ec565b6106f5565b6106ec565b9050919050565b5f819050919050565b610731836106fe565b61074561073d8261071f565b84845461069b565b825550505050565b5f5f905090565b61075c61074d565b610767818484610728565b505050565b5b8181101561078a5761077f5f82610754565b60018101905061076d565b5050565b601f8211156107cf576107a08161066e565b6107a984610680565b810160208510156107b8578190505b6107cc6107c485610680565b83018261076c565b50505b505050565b5f82821c905092915050565b5f6107ef5f19846008026107d4565b1980831691505092915050565b5f61080783836107e0565b9150826002028217905092915050565b61082082610607565b67ffffffffffffffff8111156108395761083861045b565b5b610843825461063e565b61084e82828561078e565b5f60209050601f83116001811461087f575f841561086d578287015190505b61087785826107fc565b8655506108de565b601f19841661088d8661066e565b5f5b828110156108b45784890151825560018201915060208501945060208101905061088f565b868310156108d157848901516108cd601f8916826107e0565b8355505b6001600288020188555050505b505050505050565b6108ef81610408565b82525050565b5f6020820190506109085f8301846108e6565b92915050565b5f819050919050565b6109208161090e565b82525050565b61092f816106ec565b82525050565b5f60a0820190506109485f830188610917565b6109556020830187610917565b6109626040830186610917565b61096f6060830185610926565b61097c60808301846108e6565b9695505050505050565b5f82825260208201905092915050565b5f6109a082610607565b6109aa8185610986565b93506109ba818560208601610503565b6109c38161044b565b840191505092915050565b5f6020820190508181035f8301526109e68184610996565b905092915050565b5f81519050919050565b5f819050602082019050919050565b5f610a12825161090e565b80915050919050565b5f610a25826109ee565b82610a2f846109f8565b9050610a3a81610a07565b92506020821015610a7a57610a757fffffffffffffffffffffffffffffffffffffffffffffffffffffffffffffffff8360200360080261068f565b831692505b5050919050565b60805160a05160c05160e051610100516101205161014051613a8e610ad25f395f61168601525f61164b01525f61274b01525f61272a01525f61208601525f6120dc01525f6121050152613a8e5ff3fe608060405234801561000f575f5ffd5b506004361061020f575f3560e01c8063862b092b116101235780639dc29fac116100ab578063f1127ed81161007a578063f1127ed81461066b578063f1850af81461069b578063f2fde38b146106b9578063f8b2cb4f146106d5578063fffdf6e1146107055761020f565b80639dc29fac146105d3578063a9059cbb146105ef578063c3cda5201461061f578063dd62ed3e1461063b5761020f565b8063928b9205116100f2578063928b92051461051957806395d89b41146105375780639711715a14610555578063981b24d0146105735780639ab24eb0146105a35761020f565b8063862b092b1461048f5780638da5cb5b146104ad5780638e539e8c146104cb57806391ddadf4146104fb5761020f565b80634ee2cd7e116101a65780636fcfff45116101755780636fcfff45146103d157806370a0823114610401578063715018a6146104315780637ecebe001461043b57806384b0196e1461046b5761020f565b80634ee2cd7e14610337578063587cde1e146103675780635c19a95c1461039757806369fe17d6146103b35761020f565b8063313ce567116101e2578063313ce567146102af5780633a46b1a8146102cd57806340c10f19146102fd5780634bf5d7e9146103195761020f565b806306fdde0314610213578063095ea7b31461023157806318160ddd1461026157806323b872dd1461027f575b5f5ffd5b61021b610723565b6040516102289190612e98565b60405180910390f35b61024b60048036038101906102469190612f49565b6107b3565b6040516102589190612fa1565b60405180910390f35b6102696107d5565b6040516102769190612fc9565b60405180910390f35b61029960048036038101906102949190612fe2565b6107de565b6040516102a69190612fa1565b60405180910390f35b6102b761080c565b6040516102c4919061304d565b60405180910390f35b6102e760048036038101906102e29190612f49565b610814565b6040516102f49190612fc9565b60405180910390f35b61031760048036038101906103129190612f49565b610890565b005b6103216108a6565b60405161032e9190612e98565b60405180910390f35b610351600480360381019061034c9190612f49565b6108e3565b60405161035e9190612fc9565b60405180910390f35b610381600480360381019061037c9190613066565b6108f6565b60405161038e91906130a0565b60405180910390f35b6103b160048036038101906103ac9190613066565b6108ff565b005b6103bb610918565b6040516103c89190612fa1565b60405180910390f35b6103eb60048036038101906103e69190613066565b610995565b6040516103f891906130d7565b60405180910390f35b61041b60048036038101906104169190613066565b6109a6565b6040516104289190612fc9565b60405180910390f35b6104396109eb565b005b61045560048036038101906104509190613066565b6109fe565b6040516104629190612fc9565b60405180910390f35b610473610a44565b60405161048697969594939291906131f9565b60405180910390f35b610497610ae9565b6040516104a49190612e98565b60405180910390f35b6104b5610af8565b6040516104c291906130a0565b60405180910390f35b6104e560048036038101906104e0919061327b565b610b20565b6040516104f29190612fc9565b60405180910390f35b610503610b60565b60405161051091906132c6565b60405180910390f35b610521610b7b565b60405161052e9190612fc9565b60405180910390f35b61053f610c0f565b60405161054c9190612e98565b60405180910390f35b61055d610c9f565b60405161056a91906132c6565b60405180910390f35b61058d6004803603810190610588919061327b565b610d3e565b60405161059a9190612fc9565b60405180910390f35b6105bd60048036038101906105b89190613066565b610d4f565b6040516105ca9190612fc9565b60405180910390f35b6105ed60048036038101906105e89190612f49565b610db8565b005b61060960048036038101906106049190612f49565b610dce565b6040516106169190612fa1565b60405180910390f35b61063960048036038101906106349190613333565b610df0565b005b610655600480360381019061065091906133bc565b610eb5565b6040516106629190612fc9565b60405180910390f35b61068560048036038101906106809190613424565b610f37565b60405161069291906134d2565b60405180910390f35b6106a3610f51565b6040516106b09190612e98565b60405180910390f35b6106d360048036038101906106ce9190613066565b610f60565b005b6106ef60048036038101906106ea9190613066565b610fe4565b6040516106fc9190612fc9565b60405180910390f35b61070d610ff5565b60405161071a91906130a0565b60405180910390f35b60606003805461073290613518565b80601f016020809104026020016040519081016040528092919081815260200182805461075e90613518565b80156107a95780601f10610780576101008083540402835291602001916107a9565b820191905f5260205f20905b81548152906001019060200180831161078c57829003601f168201915b5050505050905090565b5f5f6107bd61101d565b90506107ca818585611024565b600191505092915050565b5f600254905090565b5f5f6107e861101d565b90506107f5858285611036565b6108008585856110c9565b60019150509392505050565b5f6012905090565b5f61086c610821836111b9565b60095f8673ffffffffffffffffffffffffffffffffffffffff1673ffffffffffffffffffffffffffffffffffffffff1681526020019081526020015f2061122490919063ffffffff16565b79ffffffffffffffffffffffffffffffffffffffffffffffffffff16905092915050565b610898611314565b6108a2828261139b565b5050565b60606040518060400160405280600c81526020017f6d6f64653d636f756e7465720000000000000000000000000000000000000000815250905090565b5f6108ee8383610814565b905092915050565b5f819050919050565b5f61090861101d565b9050610914818361141a565b5050565b5f610921610b7b565b3073ffffffffffffffffffffffffffffffffffffffff166318160ddd6040518163ffffffff1660e01b8152600401602060405180830381865afa15801561096a573d5f5f3e3d5ffd5b505050506040513d601f19601f8201168201806040525081019061098e919061355c565b1115905090565b5f61099f8261152a565b9050919050565b5f5f5f8373ffffffffffffffffffffffffffffffffffffffff1673ffffffffffffffffffffffffffffffffffffffff1681526020019081526020015f20549050919050565b6109f3611314565b6109fc5f61157f565b565b5f60075f8373ffffffffffffffffffffffffffffffffffffffff1673ffffffffffffffffffffffffffffffffffffffff1681526020019081526020015f20549050919050565b5f6060805f5f5f6060610a55611642565b610a5d61167d565b46305f5f1b5f67ffffffffffffffff811115610a7c57610a7b613587565b5b604051908082528060200260200182016040528015610aaa5781602001602082028036833780820191505090505b507f0f00000000000000000000000000000000000000000000000000000000000000959493929190965096509650965096509650965090919293949596565b6060610af3610723565b905090565b5f600b5f9054906101000a900473ffffffffffffffffffffffffffffffffffffffff16905090565b5f610b3d610b2d836111b9565b600a61122490919063ffffffff16565b79ffffffffffffffffffffffffffffffffffffffffffffffffffff169050919050565b5f600c60149054906101000a900465ffffffffffff16905090565b5f600c5f9054906101000a900473ffffffffffffffffffffffffffffffffffffffff1673ffffffffffffffffffffffffffffffffffffffff1663f2d014b76040518163ffffffff1660e01b8152600401602060405180830381865afa158015610be6573d5f5f3e3d5ffd5b505050506040513d601f19601f82011682018060405250810190610c0a919061355c565b905090565b606060048054610c1e90613518565b80601f0160208091040260200160405190810160405280929190818152602001828054610c4a90613518565b8015610c955780601f10610c6c57610100808354040283529160200191610c95565b820191905f5260205f20905b815481529060010190602001808311610c7857829003601f168201915b5050505050905090565b5f610ca8611314565b7ff3313d13c61ca13b729cb2b240790628638982965592fba1f05a090b1eaf0cd2600c60149054906101000a900465ffffffffffff16604051610ceb91906132c6565b60405180910390a1600c601481819054906101000a900465ffffffffffff1680929190610d17906135e1565b91906101000a81548165ffffffffffff021916908365ffffffffffff160217905550905090565b5f610d4882610b20565b9050919050565b5f610d9560095f8473ffffffffffffffffffffffffffffffffffffffff1673ffffffffffffffffffffffffffffffffffffffff1681526020019081526020015f206116b8565b79ffffffffffffffffffffffffffffffffffffffffffffffffffff169050919050565b610dc0611314565b610dca828261171a565b5050565b5f5f610dd861101d565b9050610de58185856110c9565b600191505092915050565b83421115610e3557836040517f4683af0e000000000000000000000000000000000000000000000000000000008152600401610e2c9190612fc9565b60405180910390fd5b5f610e96610e8e7fe48329057bfd03d55e49b547132e39cffd9c1820ad7b9d4c5307691425d15adf898989604051602001610e73949392919061360e565b60405160208183030381529060405280519060200120611799565b8585856117b2565b9050610ea281876117e0565b610eac818861141a565b50505050505050565b5f60015f8473ffffffffffffffffffffffffffffffffffffffff1673ffffffffffffffffffffffffffffffffffffffff1681526020019081526020015f205f8373ffffffffffffffffffffffffffffffffffffffff1673ffffffffffffffffffffffffffffffffffffffff1681526020019081526020015f2054905092915050565b610f3f612dec565b610f498383611837565b905092915050565b6060610f5b610c0f565b905090565b610f68611314565b5f73ffffffffffffffffffffffffffffffffffffffff168173ffffffffffffffffffffffffffffffffffffffff1603610fd8575f6040517f1e4fbdf7000000000000000000000000000000000000000000000000000000008152600401610fcf91906130a0565b60405180910390fd5b610fe18161157f565b50565b5f610fee826109a6565b9050919050565b5f600c5f9054906101000a900473ffffffffffffffffffffffffffffffffffffffff16905090565b5f33905090565b6110318383836001611896565b505050565b5f6110418484610eb5565b90507fffffffffffffffffffffffffffffffffffffffffffffffffffffffffffffffff8110156110c357818110156110b4578281836040517ffb8f41b20000000000000000000000000000000000000000000000000000000081526004016110ab93929190613651565b60405180910390fd5b6110c284848484035f611896565b5b50505050565b5f73ffffffffffffffffffffffffffffffffffffffff168373ffffffffffffffffffffffffffffffffffffffff1603611139575f6040517f96c6fd1e00000000000000000000000000000000000000000000000000000000815260040161113091906130a0565b60405180910390fd5b5f73ffffffffffffffffffffffffffffffffffffffff168273ffffffffffffffffffffffffffffffffffffffff16036111a9575f6040517fec442f050000000000000000000000000000000000000000000000000000000081526004016111a091906130a0565b60405180910390fd5b6111b4838383611a65565b505050565b5f5f6111c3610b60565b90508065ffffffffffff1683106112135782816040517fecd3f81e00000000000000000000000000000000000000000000000000000000815260040161120a929190613686565b60405180910390fd5b61121c83611a75565b915050919050565b5f5f835f018054905090505f5f90505f82905060058311156112a8575f61124a84611ace565b8461125591906136ad565b9050611263875f0182611c68565b5f015f9054906101000a900465ffffffffffff1665ffffffffffff168665ffffffffffff161015611296578091506112a6565b6001816112a391906136e0565b92505b505b5f6112b7875f01878585611c7a565b90505f8114611306576112d8875f016001836112d391906136ad565b611c68565b5f0160069054906101000a900479ffffffffffffffffffffffffffffffffffffffffffffffffffff16611308565b5f5b94505050505092915050565b61131c61101d565b73ffffffffffffffffffffffffffffffffffffffff1661133a610af8565b73ffffffffffffffffffffffffffffffffffffffff16146113995761135d61101d565b6040517f118cdaa700000000000000000000000000000000000000000000000000000000815260040161139091906130a0565b60405180910390fd5b565b5f73ffffffffffffffffffffffffffffffffffffffff168273ffffffffffffffffffffffffffffffffffffffff160361140b575f6040517fec442f0500000000000000000000000000000000000000000000000000000000815260040161140291906130a0565b60405180910390fd5b6114165f8383611a65565b5050565b5f611424836108f6565b90508160085f8573ffffffffffffffffffffffffffffffffffffffff1673ffffffffffffffffffffffffffffffffffffffff1681526020019081526020015f205f6101000a81548173ffffffffffffffffffffffffffffffffffffffff021916908373ffffffffffffffffffffffffffffffffffffffff1602179055508173ffffffffffffffffffffffffffffffffffffffff168173ffffffffffffffffffffffffffffffffffffffff168473ffffffffffffffffffffffffffffffffffffffff167f3134e8a2e6d97e929a7e54011ea5485d7d196dd5f0ba4d4ef95803e8e3fc257f60405160405180910390a4611525818361152086611cef565b611d00565b505050565b5f61157861157360095f8573ffffffffffffffffffffffffffffffffffffffff1673ffffffffffffffffffffffffffffffffffffffff1681526020019081526020015f20611f70565b611f7f565b9050919050565b5f600b5f9054906101000a900473ffffffffffffffffffffffffffffffffffffffff16905081600b5f6101000a81548173ffffffffffffffffffffffffffffffffffffffff021916908373ffffffffffffffffffffffffffffffffffffffff1602179055508173ffffffffffffffffffffffffffffffffffffffff168173ffffffffffffffffffffffffffffffffffffffff167f8be0079c531659141344cd1fd0a4f28419497f9722a3daafe3b4186f6b6457e060405160405180910390a35050565b606061167860057f0000000000000000000000000000000000000000000000000000000000000000611fd690919063ffffffff16565b905090565b60606116b360067f0000000000000000000000000000000000000000000000000000000000000000611fd690919063ffffffff16565b905090565b5f5f825f018054905090505f8114611710576116e2835f016001836116dd91906136ad565b611c68565b5f0160069054906101000a900479ffffffffffffffffffffffffffffffffffffffffffffffffffff16611712565b5f5b915050919050565b5f73ffffffffffffffffffffffffffffffffffffffff168273ffffffffffffffffffffffffffffffffffffffff160361178a575f6040517f96c6fd1e00000000000000000000000000000000000000000000000000000000815260040161178191906130a0565b60405180910390fd5b611795825f83611a65565b5050565b5f6117ab6117a5612083565b83612139565b9050919050565b5f5f5f5f6117c288888888612179565b9250925092506117d28282612260565b829350505050949350505050565b5f6117ea836123c2565b90508082146118325782816040517f752d88c0000000000000000000000000000000000000000000000000000000008152600401611829929190613713565b60405180910390fd5b505050565b61183f612dec565b61188e8260095f8673ffffffffffffffffffffffffffffffffffffffff1673ffffffffffffffffffffffffffffffffffffffff1681526020019081526020015f2061241590919063ffffffff16565b905092915050565b5f73ffffffffffffffffffffffffffffffffffffffff168473ffffffffffffffffffffffffffffffffffffffff1603611906575f6040517fe602df050000000000000000000000000000000000000000000000000000000081526004016118fd91906130a0565b60405180910390fd5b5f73ffffffffffffffffffffffffffffffffffffffff168373ffffffffffffffffffffffffffffffffffffffff1603611976575f6040517f94280d6200000000000000000000000000000000000000000000000000000000815260040161196d91906130a0565b60405180910390fd5b8160015f8673ffffffffffffffffffffffffffffffffffffffff1673ffffffffffffffffffffffffffffffffffffffff1681526020019081526020015f205f8573ffffffffffffffffffffffffffffffffffffffff1673ffffffffffffffffffffffffffffffffffffffff1681526020019081526020015f20819055508015611a5f578273ffffffffffffffffffffffffffffffffffffffff168473ffffffffffffffffffffffffffffffffffffffff167f8c5be1e5ebec7d5bd14f71427d1e84f3dd0314c0f7b2291e5b200ac8c7c3b92584604051611a569190612fc9565b60405180910390a35b50505050565b611a708383836124e4565b505050565b5f65ffffffffffff8016821115611ac6576030826040517f6dfcc650000000000000000000000000000000000000000000000000000000008152600401611abd92919061377c565b60405180910390fd5b819050919050565b5f60018211611adf57819050611c63565b5f8290505f600190507001000000000000000000000000000000008210611b0f57608082901c9150604081901b90505b680100000000000000008210611b2e57604082901c9150602081901b90505b6401000000008210611b4957602082901c9150601081901b90505b620100008210611b6257601082901c9150600881901b90505b6101008210611b7a57600882901c9150600481901b90505b60108210611b9157600482901c9150600281901b90505b60048210611ba157600181901b90505b600181600302901c90506001818581611bbd57611bbc6137a3565b5b048201901c90506001818581611bd657611bd56137a3565b5b048201901c90506001818581611bef57611bee6137a3565b5b048201901c90506001818581611c0857611c076137a3565b5b048201901c90506001818581611c2157611c206137a3565b5b048201901c90506001818581611c3a57611c396137a3565b5b048201901c9050611c5c818581611c5457611c536137a3565b5b048211612592565b8103925050505b919050565b5f825f528160205f2001905092915050565b5f5b81831015611ce4575f611c8f848461259d565b90508465ffffffffffff16611ca48783611c68565b5f015f9054906101000a900465ffffffffffff1665ffffffffffff161115611cce57809250611cde565b600181611cdb91906136e0565b93505b50611c7c565b819050949350505050565b5f611cf9826109a6565b9050919050565b8173ffffffffffffffffffffffffffffffffffffffff168373ffffffffffffffffffffffffffffffffffffffff1614158015611d3b57505f81115b15611f6b575f73ffffffffffffffffffffffffffffffffffffffff168373ffffffffffffffffffffffffffffffffffffffff1614611e55575f5f611dc660095f8773ffffffffffffffffffffffffffffffffffffffff1673ffffffffffffffffffffffffffffffffffffffff1681526020019081526020015f206125be611dc1866125d3565b612640565b79ffffffffffffffffffffffffffffffffffffffffffffffffffff16915079ffffffffffffffffffffffffffffffffffffffffffffffffffff1691508473ffffffffffffffffffffffffffffffffffffffff167fdec2bacdd2f05b59de34da9b523dff8be42e5e38e818c82fdb0bae774387a7248383604051611e4a9291906137d0565b60405180910390a250505b5f73ffffffffffffffffffffffffffffffffffffffff168273ffffffffffffffffffffffffffffffffffffffff1614611f6a575f5f611edb60095f8673ffffffffffffffffffffffffffffffffffffffff1673ffffffffffffffffffffffffffffffffffffffff1681526020019081526020015f2061267f611ed6866125d3565b612640565b79ffffffffffffffffffffffffffffffffffffffffffffffffffff16915079ffffffffffffffffffffffffffffffffffffffffffffffffffff1691508373ffffffffffffffffffffffffffffffffffffffff167fdec2bacdd2f05b59de34da9b523dff8be42e5e38e818c82fdb0bae774387a7248383604051611f5f9291906137d0565b60405180910390a250505b5b505050565b5f815f01805490509050919050565b5f63ffffffff8016821115611fce576020826040517f6dfcc650000000000000000000000000000000000000000000000000000000008152600401611fc5929190613830565b60405180910390fd5b819050919050565b606060ff5f1b8314611ff257611feb83612694565b905061207d565b818054611ffe90613518565b80601f016020809104026020016040519081016040528092919081815260200182805461202a90613518565b80156120755780601f1061204c57610100808354040283529160200191612075565b820191905f5260205f20905b81548152906001019060200180831161205857829003601f168201915b505050505090505b92915050565b5f7f000000000000000000000000000000000000000000000000000000000000000073ffffffffffffffffffffffffffffffffffffffff163073ffffffffffffffffffffffffffffffffffffffff161480156120fe57507f000000000000000000000000000000000000000000000000000000000000000046145b1561212b577f00000000000000000000000000000000000000000000000000000000000000009050612136565b612133612706565b90505b90565b5f6040517f190100000000000000000000000000000000000000000000000000000000000081528360028201528260228201526042812091505092915050565b5f5f5f7f7fffffffffffffffffffffffffffffff5d576e7357a4501ddfe92f46681b20a0845f1c11156121b5575f600385925092509250612256565b5f6001888888886040515f81526020016040526040516121d89493929190613857565b6020604051602081039080840390855afa1580156121f8573d5f5f3e3d5ffd5b5050506020604051035190505f73ffffffffffffffffffffffffffffffffffffffff168173ffffffffffffffffffffffffffffffffffffffff1603612249575f60015f5f1b93509350935050612256565b805f5f5f1b935093509350505b9450945094915050565b5f60038111156122735761227261389a565b5b8260038111156122865761228561389a565b5b03156123be57600160038111156122a05761229f61389a565b5b8260038111156122b3576122b261389a565b5b036122ea576040517ff645eedf00000000000000000000000000000000000000000000000000000000815260040160405180910390fd5b600260038111156122fe576122fd61389a565b5b8260038111156123115761231061389a565b5b0361235557805f1c6040517ffce698f700000000000000000000000000000000000000000000000000000000815260040161234c9190612fc9565b60405180910390fd5b6003808111156123685761236761389a565b5b82600381111561237b5761237a61389a565b5b036123bd57806040517fd78bce0c0000000000000000000000000000000000000000000000000000000081526004016123b491906138c7565b60405180910390fd5b5b5050565b5f60075f8373ffffffffffffffffffffffffffffffffffffffff1673ffffffffffffffffffffffffffffffffffffffff1681526020019081526020015f205f815480929190600101919050559050919050565b61241d612dec565b825f018263ffffffff1681548110612438576124376138e0565b5b905f5260205f20016040518060400160405290815f82015f9054906101000a900465ffffffffffff1665ffffffffffff1665ffffffffffff1681526020015f820160069054906101000a900479ffffffffffffffffffffffffffffffffffffffffffffffffffff1679ffffffffffffffffffffffffffffffffffffffffffffffffffff1679ffffffffffffffffffffffffffffffffffffffffffffffffffff1681525050905092915050565b6124ef83838361279b565b5f73ffffffffffffffffffffffffffffffffffffffff168373ffffffffffffffffffffffffffffffffffffffff1603612582575f61252b6107d5565b90505f6125366129b4565b90508082111561257f5781816040517f1cb15d260000000000000000000000000000000000000000000000000000000081526004016125769291906137d0565b60405180910390fd5b50505b61258d8383836129d7565b505050565b5f8115159050919050565b5f6002828418816125b1576125b06137a3565b5b0482841601905092915050565b5f81836125cb919061390d565b905092915050565b5f79ffffffffffffffffffffffffffffffffffffffffffffffffffff80168211156126385760d0826040517f6dfcc65000000000000000000000000000000000000000000000000000000000815260040161262f929190613993565b60405180910390fd5b819050919050565b5f5f61267361264d610b60565b612663612659886116b8565b868863ffffffff16565b87612a8f9092919063ffffffff16565b91509150935093915050565b5f818361268c91906139ba565b905092915050565b60605f6126a083612aaa565b90505f602067ffffffffffffffff8111156126be576126bd613587565b5b6040519080825280601f01601f1916602001820160405280156126f05781602001600182028036833780820191505090505b5090508181528360208201528092505050919050565b5f7f8b73c3c69bb8fe3d512ecc4cf759cc79239f7b179b0ffacaa9a75d522b39400f7f00000000000000000000000000000000000000000000000000000000000000007f00000000000000000000000000000000000000000000000000000000000000004630604051602001612780959493929190613a07565b60405160208183030381529060405280519060200120905090565b5f73ffffffffffffffffffffffffffffffffffffffff168373ffffffffffffffffffffffffffffffffffffffff16036127eb578060025f8282546127df91906136e0565b925050819055506128b9565b5f5f5f8573ffffffffffffffffffffffffffffffffffffffff1673ffffffffffffffffffffffffffffffffffffffff1681526020019081526020015f2054905081811015612874578381836040517fe450d38c00000000000000000000000000000000000000000000000000000000815260040161286b93929190613651565b60405180910390fd5b8181035f5f8673ffffffffffffffffffffffffffffffffffffffff1673ffffffffffffffffffffffffffffffffffffffff1681526020019081526020015f2081905550505b5f73ffffffffffffffffffffffffffffffffffffffff168273ffffffffffffffffffffffffffffffffffffffff1603612900578060025f828254039250508190555061294a565b805f5f8473ffffffffffffffffffffffffffffffffffffffff1673ffffffffffffffffffffffffffffffffffffffff1681526020019081526020015f205f82825401925050819055505b8173ffffffffffffffffffffffffffffffffffffffff168373ffffffffffffffffffffffffffffffffffffffff167fddf252ad1be2c89b69c2b068fc378daa952ba7f163c4a11628f55a4df523b3ef836040516129a79190612fc9565b60405180910390a3505050565b5f79ffffffffffffffffffffffffffffffffffffffffffffffffffff8016905090565b5f73ffffffffffffffffffffffffffffffffffffffff168373ffffffffffffffffffffffffffffffffffffffff1603612a2357612a20600a61267f612a1b846125d3565b612640565b50505b5f73ffffffffffffffffffffffffffffffffffffffff168273ffffffffffffffffffffffffffffffffffffffff1603612a6f57612a6c600a6125be612a67846125d3565b612640565b50505b612a8a612a7b846108f6565b612a84846108f6565b83611d00565b505050565b5f5f612a9e855f018585612af8565b91509150935093915050565b5f5f60ff835f1c169050601f811115612aef576040517fb3512b0c00000000000000000000000000000000000000000000000000000000815260040160405180910390fd5b80915050919050565b5f5f5f858054905090505f811115612d04575f612b2187600184612b1c91906136ad565b611c68565b90505f815f015f9054906101000a900465ffffffffffff1690505f825f0160069054906101000a900479ffffffffffffffffffffffffffffffffffffffffffffffffffff1690508765ffffffffffff168265ffffffffffff161115612bb2576040517f2520601d00000000000000000000000000000000000000000000000000000000815260040160405180910390fd5b8765ffffffffffff168265ffffffffffff1603612c1c5786835f0160066101000a81548179ffffffffffffffffffffffffffffffffffffffffffffffffffff021916908379ffffffffffffffffffffffffffffffffffffffffffffffffffff160217905550612cf5565b8860405180604001604052808a65ffffffffffff1681526020018979ffffffffffffffffffffffffffffffffffffffffffffffffffff16815250908060018154018082558091505060019003905f5260205f20015f909190919091505f820151815f015f6101000a81548165ffffffffffff021916908365ffffffffffff1602179055506020820151815f0160066101000a81548179ffffffffffffffffffffffffffffffffffffffffffffffffffff021916908379ffffffffffffffffffffffffffffffffffffffffffffffffffff16021790555050505b80879550955050505050612de4565b8560405180604001604052808765ffffffffffff1681526020018679ffffffffffffffffffffffffffffffffffffffffffffffffffff16815250908060018154018082558091505060019003905f5260205f20015f909190919091505f820151815f015f6101000a81548165ffffffffffff021916908365ffffffffffff1602179055506020820151815f0160066101000a81548179ffffffffffffffffffffffffffffffffffffffffffffffffffff021916908379ffffffffffffffffffffffffffffffffffffffffffffffffffff16021790555050505f8492509250505b935093915050565b60405180604001604052805f65ffffffffffff1681526020015f79ffffffffffffffffffffffffffffffffffffffffffffffffffff1681525090565b5f81519050919050565b5f82825260208201905092915050565b8281835e5f83830152505050565b5f601f19601f8301169050919050565b5f612e6a82612e28565b612e748185612e32565b9350612e84818560208601612e42565b612e8d81612e50565b840191505092915050565b5f6020820190508181035f830152612eb08184612e60565b905092915050565b5f5ffd5b5f73ffffffffffffffffffffffffffffffffffffffff82169050919050565b5f612ee582612ebc565b9050919050565b612ef581612edb565b8114612eff575f5ffd5b50565b5f81359050612f1081612eec565b92915050565b5f819050919050565b612f2881612f16565b8114612f32575f5ffd5b50565b5f81359050612f4381612f1f565b92915050565b5f5f60408385031215612f5f57612f5e612eb8565b5b5f612f6c85828601612f02565b9250506020612f7d85828601612f35565b9150509250929050565b5f8115159050919050565b612f9b81612f87565b82525050565b5f602082019050612fb45f830184612f92565b92915050565b612fc381612f16565b82525050565b5f602082019050612fdc5f830184612fba565b92915050565b5f5f5f60608486031215612ff957612ff8612eb8565b5b5f61300686828701612f02565b935050602061301786828701612f02565b925050604061302886828701612f35565b9150509250925092565b5f60ff82169050919050565b61304781613032565b82525050565b5f6020820190506130605f83018461303e565b92915050565b5f6020828403121561307b5761307a612eb8565b5b5f61308884828501612f02565b91505092915050565b61309a81612edb565b82525050565b5f6020820190506130b35f830184613091565b92915050565b5f63ffffffff82169050919050565b6130d1816130b9565b82525050565b5f6020820190506130ea5f8301846130c8565b92915050565b5f7fff0000000000000000000000000000000000000000000000000000000000000082169050919050565b613124816130f0565b82525050565b5f819050919050565b61313c8161312a565b82525050565b5f81519050919050565b5f82825260208201905092915050565b5f819050602082019050919050565b61317481612f16565b82525050565b5f613185838361316b565b60208301905092915050565b5f602082019050919050565b5f6131a782613142565b6131b1818561314c565b93506131bc8361315c565b805f5b838110156131ec5781516131d3888261317a565b97506131de83613191565b9250506001810190506131bf565b5085935050505092915050565b5f60e08201905061320c5f83018a61311b565b818103602083015261321e8189612e60565b905081810360408301526132328188612e60565b90506132416060830187612fba565b61324e6080830186613091565b61325b60a0830185613133565b81810360c083015261326d818461319d565b905098975050505050505050565b5f602082840312156132905761328f612eb8565b5b5f61329d84828501612f35565b91505092915050565b5f65ffffffffffff82169050919050565b6132c0816132a6565b82525050565b5f6020820190506132d95f8301846132b7565b92915050565b6132e881613032565b81146132f2575f5ffd5b50565b5f81359050613303816132df565b92915050565b6133128161312a565b811461331c575f5ffd5b50565b5f8135905061332d81613309565b92915050565b5f5f5f5f5f5f60c0878903121561334d5761334c612eb8565b5b5f61335a89828a01612f02565b965050602061336b89828a01612f35565b955050604061337c89828a01612f35565b945050606061338d89828a016132f5565b935050608061339e89828a0161331f565b92505060a06133af89828a0161331f565b9150509295509295509295565b5f5f604083850312156133d2576133d1612eb8565b5b5f6133df85828601612f02565b92505060206133f085828601612f02565b9150509250929050565b613403816130b9565b811461340d575f5ffd5b50565b5f8135905061341e816133fa565b92915050565b5f5f6040838503121561343a57613439612eb8565b5b5f61344785828601612f02565b925050602061345885828601613410565b9150509250929050565b61346b816132a6565b82525050565b5f79ffffffffffffffffffffffffffffffffffffffffffffffffffff82169050919050565b61349f81613471565b82525050565b604082015f8201516134b95f850182613462565b5060208201516134cc6020850182613496565b50505050565b5f6040820190506134e55f8301846134a5565b92915050565b7f4e487b71000000000000000000000000000000000000000000000000000000005f52602260045260245ffd5b5f600282049050600182168061352f57607f821691505b602082108103613542576135416134eb565b5b50919050565b5f8151905061355681612f1f565b92915050565b5f6020828403121561357157613570612eb8565b5b5f61357e84828501613548565b91505092915050565b7f4e487b71000000000000000000000000000000000000000000000000000000005f52604160045260245ffd5b7f4e487b71000000000000000000000000000000000000000000000000000000005f52601160045260245ffd5b5f6135eb826132a6565b915065ffffffffffff8203613603576136026135b4565b5b600182019050919050565b5f6080820190506136215f830187613133565b61362e6020830186613091565b61363b6040830185612fba565b6136486060830184612fba565b95945050505050565b5f6060820190506136645f830186613091565b6136716020830185612fba565b61367e6040830184612fba565b949350505050565b5f6040820190506136995f830185612fba565b6136a660208301846132b7565b9392505050565b5f6136b782612f16565b91506136c283612f16565b92508282039050818111156136da576136d96135b4565b5b92915050565b5f6136ea82612f16565b91506136f583612f16565b925082820190508082111561370d5761370c6135b4565b5b92915050565b5f6040820190506137265f830185613091565b6137336020830184612fba565b9392505050565b5f819050919050565b5f819050919050565b5f61376661376161375c8461373a565b613743565b613032565b9050919050565b6137768161374c565b82525050565b5f60408201905061378f5f83018561376d565b61379c6020830184612fba565b9392505050565b7f4e487b71000000000000000000000000000000000000000000000000000000005f52601260045260245ffd5b5f6040820190506137e35f830185612fba565b6137f06020830184612fba565b9392505050565b5f819050919050565b5f61381a613815613810846137f7565b613743565b613032565b9050919050565b61382a81613800565b82525050565b5f6040820190506138435f830185613821565b6138506020830184612fba565b9392505050565b5f60808201905061386a5f830187613133565b613877602083018661303e565b6138846040830185613133565b6138916060830184613133565b95945050505050565b7f4e487b71000000000000000000000000000000000000000000000000000000005f52602160045260245ffd5b5f6020820190506138da5f830184613133565b92915050565b7f4e487b71000000000000000000000000000000000000000000000000000000005f52603260045260245ffd5b5f61391782613471565b915061392283613471565b9250828203905079ffffffffffffffffffffffffffffffffffffffffffffffffffff811115613954576139536135b4565b5b92915050565b5f819050919050565b5f61397d6139786139738461395a565b613743565b613032565b9050919050565b61398d81613963565b82525050565b5f6040820190506139a65f830185613984565b6139b36020830184612fba565b9392505050565b5f6139c482613471565b91506139cf83613471565b9250828201905079ffffffffffffffffffffffffffffffffffffffffffffffffffff811115613a0157613a006135b4565b5b92915050565b5f60a082019050613a1a5f830188613133565b613a276020830187613133565b613a346040830186613133565b613a416060830185612fba565b613a4e6080830184613091565b969550505050505056fea26469706673582212205e2ebc571617e08bc3e5b049ec0cdfc831ba29e219c6d8892b05cb162db3a7a664736f6c634300081e0033","linkReferences":{}},"methodIdentifiers":{"CLOCK_MODE()":"4bf5d7e9","allowance(address,address)":"dd62ed3e","approve(address,uint256)":"095ea7b3","balanceOf(address)":"70a08231","balanceOfAt(address,uint256)":"4ee2cd7e","burn(address,uint256)":"9dc29fac","checkpoints(address,uint32)":"f1127ed8","clock()":"91ddadf4","decimals()":"313ce567","delegate(address)":"5c19a95c","delegateBySig(address,uint256,uint256,uint8,bytes32,bytes32)":"c3cda520","delegates(address)":"587cde1e","eip712Domain()":"84b0196e","getBalance(address)":"f8b2cb4f","getPastTotalSupply(uint256)":"8e539e8c","getPastVotes(address,uint256)":"3a46b1a8","getProofOfReserveAddress()":"fffdf6e1","getTokenName()":"862b092b","getTokenSymbol()":"f1850af8","getVerifiedReserves()":"928b9205","getVotes(address)":"9ab24eb0","isFullyBacked()":"69fe17d6","mint(address,uint256)":"40c10f19","name()":"06fdde03","nonces(address)":"7ecebe00","numCheckpoints(address)":"6fcfff45","owner()":"8da5cb5b","renounceOwnership()":"715018a6","snapshot()":"9711715a","symbol()":"95d89b41","totalSupply()":"18160ddd","totalSupplyAt(uint256)":"981b24d0","transfer(address,uint256)":"a9059cbb","transferFrom(address,address,uint256)":"23b872dd","transferOwnership(address)":"f2fde38b"},"id":26}